{
  "contractName": "Remittance",
  "abi": [
    {
      "constant": true,
      "inputs": [],
      "name": "owner",
      "outputs": [
        {
          "name": "",
          "type": "address"
        }
      ],
      "payable": false,
      "stateMutability": "view",
      "type": "function"
    },
    {
      "constant": true,
      "inputs": [
        {
          "name": "",
          "type": "address"
        }
      ],
      "name": "Remittee",
      "outputs": [
        {
          "name": "balance",
          "type": "uint256"
        },
        {
          "name": "hashPassword",
          "type": "bytes32"
        }
      ],
      "payable": false,
      "stateMutability": "view",
      "type": "function"
    },
    {
      "inputs": [],
      "payable": true,
      "stateMutability": "payable",
      "type": "constructor"
    },
    {
      "payable": true,
      "stateMutability": "payable",
      "type": "fallback"
    },
    {
      "anonymous": false,
      "inputs": [
        {
          "indexed": false,
          "name": "Receiver",
          "type": "address"
        },
        {
          "indexed": false,
          "name": "Amount",
          "type": "uint256"
        }
      ],
      "name": "LogWithdraw",
      "type": "event"
    },
    {
      "anonymous": false,
      "inputs": [
        {
          "indexed": false,
          "name": "Receiver",
          "type": "address"
        },
        {
          "indexed": false,
          "name": "hashPassword",
          "type": "bytes32"
        },
        {
          "indexed": false,
          "name": "Amount",
          "type": "uint256"
        }
      ],
      "name": "LogsendRemittance",
      "type": "event"
    },
    {
      "constant": false,
      "inputs": [
        {
          "name": "to",
          "type": "address"
        },
        {
          "name": "hashPassword",
          "type": "bytes32"
        }
      ],
      "name": "sendRemittance",
      "outputs": [
        {
          "name": "",
          "type": "bool"
        }
      ],
      "payable": true,
      "stateMutability": "payable",
      "type": "function"
    },
    {
      "constant": false,
      "inputs": [
        {
          "name": "to",
          "type": "address"
        },
        {
          "name": "password",
          "type": "bytes32"
        }
      ],
      "name": "withdraw",
      "outputs": [],
      "payable": false,
      "stateMutability": "nonpayable",
      "type": "function"
    },
    {
      "constant": true,
      "inputs": [
        {
          "name": "pw",
          "type": "bytes32"
        }
      ],
      "name": "hashHelper",
      "outputs": [
        {
          "name": "hash",
          "type": "bytes32"
        }
      ],
      "payable": false,
      "stateMutability": "pure",
      "type": "function"
    },
    {
      "constant": false,
      "inputs": [],
      "name": "kill",
      "outputs": [],
      "payable": false,
      "stateMutability": "nonpayable",
      "type": "function"
    }
  ],
  "bytecode": "0x6060604052336000806101000a81548173ffffffffffffffffffffffffffffffffffffffff021916908373ffffffffffffffffffffffffffffffffffffffff160217905550610685806100536000396000f300606060405260043610610078576000357c0100000000000000000000000000000000000000000000000000000000900463ffffffff16806340e5e9aa1461007d57806341c0e1b5146100c357806349883524146100d85780636153eaf21461012b5780638da5cb5b1461016e578063f630a6a8146101c3575b600080fd5b341561008857600080fd5b6100c1600480803573ffffffffffffffffffffffffffffffffffffffff169060200190919080356000191690602001909190505061021f565b005b34156100ce57600080fd5b6100d66103d7565b005b610111600480803573ffffffffffffffffffffffffffffffffffffffff169060200190919080356000191690602001909190505061046c565b604051808215151515815260200191505060405180910390f35b341561013657600080fd5b6101506004808035600019169060200190919050506105e9565b60405180826000191660001916815260200191505060405180910390f35b341561017957600080fd5b610181610610565b604051808273ffffffffffffffffffffffffffffffffffffffff1673ffffffffffffffffffffffffffffffffffffffff16815260200191505060405180910390f35b34156101ce57600080fd5b6101fa600480803573ffffffffffffffffffffffffffffffffffffffff16906020019091905050610635565b6040518083815260200182600019166000191681526020019250505060405180910390f35b600061022a826105e9565b60001916600160008573ffffffffffffffffffffffffffffffffffffffff1673ffffffffffffffffffffffffffffffffffffffff168152602001908152602001600020600101546000191614151561028157600080fd5b600160008473ffffffffffffffffffffffffffffffffffffffff1673ffffffffffffffffffffffffffffffffffffffff1681526020019081526020016000206000015490506000811115156102d557600080fd5b600160008473ffffffffffffffffffffffffffffffffffffffff1673ffffffffffffffffffffffffffffffffffffffff168152602001908152602001600020600080820160009055600182016000905550507f4ce7033d118120e254016dccf195288400b28fc8936425acd5f17ce2df3ab7088382604051808373ffffffffffffffffffffffffffffffffffffffff1673ffffffffffffffffffffffffffffffffffffffff1681526020018281526020019250505060405180910390a18273ffffffffffffffffffffffffffffffffffffffff166108fc829081150290604051600060405180830381858888f1935050505015156103d257600080fd5b505050565b6000809054906101000a900473ffffffffffffffffffffffffffffffffffffffff1673ffffffffffffffffffffffffffffffffffffffff163373ffffffffffffffffffffffffffffffffffffffff1614151561043257600080fd5b6000809054906101000a900473ffffffffffffffffffffffffffffffffffffffff1673ffffffffffffffffffffffffffffffffffffffff16ff5b60008060009054906101000a900473ffffffffffffffffffffffffffffffffffffffff1673ffffffffffffffffffffffffffffffffffffffff163373ffffffffffffffffffffffffffffffffffffffff161415156104c957600080fd5b34600160008573ffffffffffffffffffffffffffffffffffffffff1673ffffffffffffffffffffffffffffffffffffffff1681526020019081526020016000206000016000828254019250508190555081600160008573ffffffffffffffffffffffffffffffffffffffff1673ffffffffffffffffffffffffffffffffffffffff16815260200190815260200160002060010181600019169055507f1a4531ca4657ae7da78ccd845edd0293afadc1c653cbadd304137620c01873db838334604051808473ffffffffffffffffffffffffffffffffffffffff1673ffffffffffffffffffffffffffffffffffffffff1681526020018360001916600019168152602001828152602001935050505060405180910390a16001905092915050565b60008160405180826000191660001916815260200191505060405180910390209050919050565b6000809054906101000a900473ffffffffffffffffffffffffffffffffffffffff1681565b600160205280600052604060002060009150905080600001549080600101549050825600a165627a7a7230582000184463220124255e91d90e62abb16bf0b4a3c221bfe514c2bcb5733cd363ab0029",
  "source": "pragma solidity ^0.4.18;\n\ncontract Remittance {\n\n    address  public owner;\n   \n    struct Details{\n        uint balance;\n        bytes32 hashPassword;\n    }\n    \n    mapping (address => Details) public Remittee;\n    \n    event LogWithdraw(address Receiver, uint Amount);\n    event LogsendRemittance(address Receiver, bytes32 hashPassword, uint Amount);\n\n    function Remittance () public payable{\n        owner = msg.sender;\n    }\n    \n    function sendRemittance (address to, bytes32 hashPassword) public payable returns(bool){\n       require(msg.sender == owner);\n       Remittee[to].balance += msg.value;\n       Remittee[to].hashPassword = hashPassword;\n       LogsendRemittance(to , hashPassword, msg.value);\n       return true;\n    }\n    \n    function withdraw(address to, bytes32 password) public{\n        require(Remittee[to].hashPassword == hashHelper(password));\n        uint amount = Remittee[to].balance;\n        require (amount > 0);\n        delete Remittee[to];\n        LogWithdraw(to, amount);\n        to.transfer(amount);\n    }\n    \n    function hashHelper (bytes32 pw) public pure returns(bytes32 hash){\n       return keccak256(pw);\n    }\n\n    \n    function () public payable{ \n        revert();\n    }\n    \n    function kill() public{\n        require(msg.sender == owner);\n        selfdestruct(owner);\n    }\n    \n}\n\n\n\n",
  "sourcePath": "/home/pritty/DAPPS/Remittance/contracts/Remittance.sol",
  "compiler": {
    "name": "solc",
    "version": "0.4.19+commit.c4cbbb05.Emscripten.clang"
  },
  "schemaVersion": "2.0.0",
  "updatedAt": "2018-06-19T00:49:22.572Z"
}