{
  "contractName": "Remittance",
  "abi": [
    {
      "constant": true,
      "inputs": [
        {
          "name": "",
          "type": "address"
        }
      ],
      "name": "balances",
      "outputs": [
        {
          "name": "",
          "type": "uint256"
        }
      ],
      "payable": false,
      "stateMutability": "view",
      "type": "function"
    },
    {
      "constant": true,
      "inputs": [],
      "name": "key_B",
      "outputs": [
        {
          "name": "",
          "type": "bytes32"
        }
      ],
      "payable": false,
      "stateMutability": "view",
      "type": "function"
    },
    {
      "constant": true,
      "inputs": [],
      "name": "owner",
      "outputs": [
        {
          "name": "",
          "type": "address"
        }
      ],
      "payable": false,
      "stateMutability": "view",
      "type": "function"
    },
    {
      "constant": true,
      "inputs": [],
      "name": "key_C",
      "outputs": [
        {
          "name": "",
          "type": "bytes32"
        }
      ],
      "payable": false,
      "stateMutability": "view",
      "type": "function"
    },
    {
      "inputs": [],
      "payable": true,
      "stateMutability": "payable",
      "type": "constructor"
    },
    {
      "payable": true,
      "stateMutability": "payable",
      "type": "fallback"
    },
    {
      "anonymous": false,
      "inputs": [
        {
          "indexed": false,
          "name": "Receiver",
          "type": "address"
        },
        {
          "indexed": false,
          "name": "Amount",
          "type": "uint256"
        }
      ],
      "name": "LogWithdraw",
      "type": "event"
    },
    {
      "anonymous": false,
      "inputs": [
        {
          "indexed": false,
          "name": "Receiver",
          "type": "address"
        },
        {
          "indexed": false,
          "name": "Amount",
          "type": "uint256"
        }
      ],
      "name": "LogAddAddress",
      "type": "event"
    },
    {
      "anonymous": false,
      "inputs": [
        {
          "indexed": false,
          "name": "Key1",
          "type": "bytes32"
        },
        {
          "indexed": false,
          "name": "Key2",
          "type": "bytes32"
        }
      ],
      "name": "LogSetKeys",
      "type": "event"
    },
    {
      "anonymous": false,
      "inputs": [
        {
          "indexed": false,
          "name": "Key1BeforeReset",
          "type": "bytes32"
        },
        {
          "indexed": false,
          "name": "Key2BeforeReset",
          "type": "bytes32"
        }
      ],
      "name": "LogResetKeys",
      "type": "event"
    },
    {
      "constant": false,
      "inputs": [
        {
          "name": "X",
          "type": "address"
        }
      ],
      "name": "addAddress",
      "outputs": [
        {
          "name": "",
          "type": "bool"
        }
      ],
      "payable": true,
      "stateMutability": "payable",
      "type": "function"
    },
    {
      "constant": false,
      "inputs": [
        {
          "name": "sha_key1",
          "type": "bytes32"
        },
        {
          "name": "sha_key2",
          "type": "bytes32"
        }
      ],
      "name": "setKeys",
      "outputs": [
        {
          "name": "",
          "type": "bool"
        }
      ],
      "payable": false,
      "stateMutability": "nonpayable",
      "type": "function"
    },
    {
      "constant": false,
      "inputs": [
        {
          "name": "key_Bob",
          "type": "string"
        },
        {
          "name": "key_Carol",
          "type": "string"
        }
      ],
      "name": "withdraw",
      "outputs": [],
      "payable": false,
      "stateMutability": "nonpayable",
      "type": "function"
    },
    {
      "constant": false,
      "inputs": [],
      "name": "kill",
      "outputs": [],
      "payable": false,
      "stateMutability": "nonpayable",
      "type": "function"
    }
  ],
  "bytecode": "0x606060405233600260006101000a81548173ffffffffffffffffffffffffffffffffffffffff021916908373ffffffffffffffffffffffffffffffffffffffff1602179055506109f9806100546000396000f30060606040526004361061008e576000357c0100000000000000000000000000000000000000000000000000000000900463ffffffff16806320b2e7bf1461009357806327e235e31461013357806338eada1c1461018057806341c0e1b5146101c65780637727071d146101db578063855f419c146102275780638da5cb5b14610258578063d6c9bf74146102ad575b600080fd5b341561009e57600080fd5b610131600480803590602001908201803590602001908080601f0160208091040260200160405190810160405280939291908181526020018383808284378201915050505050509190803590602001908201803590602001908080601f016020809104026020016040519081016040528093929190818152602001838380828437820191505050505050919050506102de565b005b341561013e57600080fd5b61016a600480803573ffffffffffffffffffffffffffffffffffffffff169060200190919050506106c0565b6040518082815260200191505060405180910390f35b6101ac600480803573ffffffffffffffffffffffffffffffffffffffff169060200190919050506106d8565b604051808215151515815260200191505060405180910390f35b34156101d157600080fd5b6101d96107ee565b005b34156101e657600080fd5b61020d60048080356000191690602001909190803560001916906020019091905050610885565b604051808215151515815260200191505060405180910390f35b341561023257600080fd5b61023a61099b565b60405180826000191660001916815260200191505060405180910390f35b341561026357600080fd5b61026b6109a1565b604051808273ffffffffffffffffffffffffffffffffffffffff1673ffffffffffffffffffffffffffffffffffffffff16815260200191505060405180910390f35b34156102b857600080fd5b6102c06109c7565b60405180826000191660001916815260200191505060405180910390f35b60008060008054925060015491506000600102600081600019169055506000600102600181600019169055507f3e3a1eaba910d9fc3f45c56738acb96aaeae15114a1fbfe7e96800390dc92dfc838360405180836000191660001916815260200182600019166000191681526020019250505060405180910390a16000600360003373ffffffffffffffffffffffffffffffffffffffff1673ffffffffffffffffffffffffffffffffffffffff168152602001908152602001600020541115156103a757600080fd5b6000600102856040518082805190602001908083835b6020831015156103e257805182526020820191506020810190506020830392506103bd565b6001836020036101000a0380198251168184511680821785525050505050509050019150506040518091039020600019161415151561042057600080fd5b6000600102846040518082805190602001908083835b60208310151561045b5780518252602082019150602081019050602083039250610436565b6001836020036101000a0380198251168184511680821785525050505050509050019150506040518091039020600019161415151561049957600080fd5b846040518082805190602001908083835b6020831015156104cf57805182526020820191506020810190506020830392506104aa565b6001836020036101000a038019825116818451168082178552505050505050905001915050604051809103902060001916836000191614151561051157600080fd5b836040518082805190602001908083835b6020831015156105475780518252602082019150602081019050602083039250610522565b6001836020036101000a038019825116818451168082178552505050505050905001915050604051809103902060001916826000191614151561058957600080fd5b600360003373ffffffffffffffffffffffffffffffffffffffff1673ffffffffffffffffffffffffffffffffffffffff168152602001908152602001600020549050600360003373ffffffffffffffffffffffffffffffffffffffff1673ffffffffffffffffffffffffffffffffffffffff168152602001908152602001600020600090557f4ce7033d118120e254016dccf195288400b28fc8936425acd5f17ce2df3ab7083382604051808373ffffffffffffffffffffffffffffffffffffffff1673ffffffffffffffffffffffffffffffffffffffff1681526020018281526020019250505060405180910390a13373ffffffffffffffffffffffffffffffffffffffff166108fc829081150290604051600060405180830381858888f1935050505015156106b957600080fd5b5050505050565b60036020528060005260406000206000915090505481565b6000600260009054906101000a900473ffffffffffffffffffffffffffffffffffffffff1673ffffffffffffffffffffffffffffffffffffffff163373ffffffffffffffffffffffffffffffffffffffff1614151561073657600080fd5b34600360008473ffffffffffffffffffffffffffffffffffffffff1673ffffffffffffffffffffffffffffffffffffffff168152602001908152602001600020819055507fc8410e4bc3b9f529054af570471a055c24ee1f145f70fd7171abebed849131638234604051808373ffffffffffffffffffffffffffffffffffffffff1673ffffffffffffffffffffffffffffffffffffffff1681526020018281526020019250505060405180910390a160019050919050565b600260009054906101000a900473ffffffffffffffffffffffffffffffffffffffff1673ffffffffffffffffffffffffffffffffffffffff163373ffffffffffffffffffffffffffffffffffffffff1614151561084a57600080fd5b600260009054906101000a900473ffffffffffffffffffffffffffffffffffffffff1673ffffffffffffffffffffffffffffffffffffffff16ff5b6000600260009054906101000a900473ffffffffffffffffffffffffffffffffffffffff1673ffffffffffffffffffffffffffffffffffffffff163373ffffffffffffffffffffffffffffffffffffffff161415156108e357600080fd5b60006001028360001916141515156108fa57600080fd5b600060010282600019161415151561091157600080fd5b816000191683600019161415151561092857600080fd5b826000816000191690555081600181600019169055507f3612a997c82c1e2cb00e8d8f3e45f16fe7a16d4fdbe1a787d11d7bf044c40bec60005460015460405180836000191660001916815260200182600019166000191681526020019250505060405180910390a16001905092915050565b60005481565b600260009054906101000a900473ffffffffffffffffffffffffffffffffffffffff1681565b600154815600a165627a7a7230582005b8ac9ce7c52c23d5b10a07d5d328e6b9755c971fb525041ab61e38616211b10029",
  "source": "pragma solidity ^0.4.19;\n\ncontract Remittance {\n    bytes32  public key_B;\n    bytes32  public key_C;\n    address  public owner;\n    \n    mapping (address => uint) public balances;\n    \n    event LogWithdraw(address Receiver, uint Amount);\n    event LogAddAddress(address Receiver, uint Amount);\n    event LogSetKeys(bytes32 Key1, bytes32 Key2);\n    event LogResetKeys(bytes32 Key1BeforeReset, bytes32 Key2BeforeReset);\n   \n    \n    function Remittance () public payable{\n        owner = msg.sender;\n    }\n    \n    function addAddress (address X) public payable returns(bool){\n       require(msg.sender == owner);\n       balances[X] = msg.value;\n       LogAddAddress(X , msg.value);\n       return true;\n    }\n    \n\n    function setKeys (bytes32 sha_key1, bytes32 sha_key2) public returns(bool){\n       require(msg.sender == owner);\n       require(sha_key1 != 0);\n       require(sha_key2 != 0);\n       require(sha_key1 != sha_key2);\n\n       key_B = sha_key1;\n       key_C = sha_key2;\n       \n       LogSetKeys(key_B , key_C);\n       return true;\n    }\n\n    function withdraw(string key_Bob, string key_Carol) public{\n        bytes32 storeKey1 = key_B;\n        bytes32 storeKey2 = key_C;\n\n//for safety, once withdraw is called both keys are reset to zero irrespective of the transaction status \n        key_B = 0;\n        key_C = 0;\n        \n        LogResetKeys(storeKey1, storeKey2);\n\n        require(balances[msg.sender] > 0);\n        require(keccak256(key_Bob) != 0);\n        require(keccak256(key_Carol) != 0);\n        require(storeKey1 == keccak256(key_Bob));\n        require(storeKey2 == keccak256(key_Carol));\n        \n        uint amount = balances[msg.sender];\n        delete balances[msg.sender];\n        LogWithdraw(msg.sender, amount);\n        msg.sender.transfer(amount);\n    }\n    \n    function () payable{ \n        revert();\n    }\n    \n    function kill() public{\n        require(msg.sender == owner);\n        selfdestruct(owner);\n    }\n    \n}\n\n\n\n",
  "sourcePath": "/home/pritty/DAPPS/Remittance/contracts/Remittance.sol",
  "compiler": {
    "name": "solc",
    "version": "0.4.19+commit.c4cbbb05.Emscripten.clang"
  },
  "schemaVersion": "2.0.0",
  "updatedAt": "2018-06-14T23:28:01.283Z"
}