{
  "contractName": "Remittance",
  "abi": [
    {
      "constant": true,
      "inputs": [
        {
          "name": "",
          "type": "address"
        }
      ],
      "name": "balances",
      "outputs": [
        {
          "name": "",
          "type": "uint256"
        }
      ],
      "payable": false,
      "stateMutability": "view",
      "type": "function"
    },
    {
      "inputs": [],
      "payable": true,
      "stateMutability": "payable",
      "type": "constructor"
    },
    {
      "payable": true,
      "stateMutability": "payable",
      "type": "fallback"
    },
    {
      "anonymous": false,
      "inputs": [
        {
          "indexed": false,
          "name": "Receiver",
          "type": "address"
        },
        {
          "indexed": false,
          "name": "Amount",
          "type": "uint256"
        }
      ],
      "name": "LogWithdraw",
      "type": "event"
    },
    {
      "constant": false,
      "inputs": [
        {
          "name": "X",
          "type": "address"
        }
      ],
      "name": "addAddress",
      "outputs": [],
      "payable": true,
      "stateMutability": "payable",
      "type": "function"
    },
    {
      "constant": false,
      "inputs": [
        {
          "name": "sha_key1",
          "type": "bytes32"
        },
        {
          "name": "sha_key2",
          "type": "bytes32"
        }
      ],
      "name": "setKeys",
      "outputs": [],
      "payable": false,
      "stateMutability": "nonpayable",
      "type": "function"
    },
    {
      "constant": false,
      "inputs": [
        {
          "name": "key_Bob",
          "type": "string"
        },
        {
          "name": "key_Carol",
          "type": "string"
        }
      ],
      "name": "withdraw",
      "outputs": [],
      "payable": false,
      "stateMutability": "nonpayable",
      "type": "function"
    }
  ],
  "bytecode": "0x606060405233600260006101000a81548173ffffffffffffffffffffffffffffffffffffffff021916908373ffffffffffffffffffffffffffffffffffffffff160217905550610638806100546000396000f300606060405260043610610062576000357c0100000000000000000000000000000000000000000000000000000000900463ffffffff16806320b2e7bf1461006757806327e235e31461010757806338eada1c146101545780637727071d14610182575b600080fd5b341561007257600080fd5b610105600480803590602001908201803590602001908080601f0160208091040260200160405190810160405280939291908181526020018383808284378201915050505050509190803590602001908201803590602001908080601f016020809104026020016040519081016040528093929190818152602001838380828437820191505050505050919050506101b6565b005b341561011257600080fd5b61013e600480803573ffffffffffffffffffffffffffffffffffffffff169060200190919050506104f2565b6040518082815260200191505060405180910390f35b610180600480803573ffffffffffffffffffffffffffffffffffffffff1690602001909190505061050a565b005b341561018d57600080fd5b6101b460048080356000191690602001909190803560001916906020019091905050610551565b005b600080600102836040518082805190602001908083835b6020831015156101f257805182526020820191506020810190506020830392506101cd565b6001836020036101000a0380198251168184511680821785525050505050509050019150506040518091039020600019161415151561023057600080fd5b6000600102826040518082805190602001908083835b60208310151561026b5780518252602082019150602081019050602083039250610246565b6001836020036101000a038019825116818451168082178552505050505050905001915050604051809103902060001916141515156102a957600080fd5b826040518082805190602001908083835b6020831015156102df57805182526020820191506020810190506020830392506102ba565b6001836020036101000a0380198251168184511680821785525050505050509050019150506040518091039020600019166000546000191614151561032357600080fd5b816040518082805190602001908083835b6020831015156103595780518252602082019150602081019050602083039250610334565b6001836020036101000a0380198251168184511680821785525050505050509050019150506040518091039020600019166001546000191614151561039d57600080fd5b600060010260008160001916905550600060010260018160001916905550600360003373ffffffffffffffffffffffffffffffffffffffff1673ffffffffffffffffffffffffffffffffffffffff1681526020019081526020016000205490506000600360003373ffffffffffffffffffffffffffffffffffffffff1673ffffffffffffffffffffffffffffffffffffffff168152602001908152602001600020819055507f4ce7033d118120e254016dccf195288400b28fc8936425acd5f17ce2df3ab7083382604051808373ffffffffffffffffffffffffffffffffffffffff1673ffffffffffffffffffffffffffffffffffffffff1681526020018281526020019250505060405180910390a13373ffffffffffffffffffffffffffffffffffffffff166108fc829081150290604051600060405180830381858888f1935050505015156104ed57600080fd5b505050565b60036020528060005260406000206000915090505481565b34600360008373ffffffffffffffffffffffffffffffffffffffff1673ffffffffffffffffffffffffffffffffffffffff1681526020019081526020016000208190555050565b600260009054906101000a900473ffffffffffffffffffffffffffffffffffffffff1673ffffffffffffffffffffffffffffffffffffffff163373ffffffffffffffffffffffffffffffffffffffff161415156105ad57600080fd5b60006001028260001916141515156105c457600080fd5b60006001028160001916141515156105db57600080fd5b80600019168260001916141515156105f257600080fd5b8160008160001916905550806001816000191690555050505600a165627a7a723058200c28ca85f0c8cb0043491dc02cd5a3dcbf6285a614b1a8316d2ab909fa2700440029",
  "source": "pragma solidity ^0.4.18;\n\ncontract Remittance {\n    bytes32  key_B;\n    bytes32  key_C;\n    address  owner;\n    \n    mapping (address => uint) public balances;\n    \n    event LogWithdraw(address Receiver, uint Amount);\n    \n    function Remittance () public payable{\n        owner = msg.sender;\n    }\n    \n    function addAddress (address X) public payable{\n       balances[X] = msg.value;\n    }\n    \n    function setKeys (bytes32 sha_key1, bytes32 sha_key2) public{\n       require(msg.sender == owner);\n       require(sha_key1 != 0);\n       require(sha_key2 != 0);\n       require(sha_key1 != sha_key2);\n\n       key_B = sha_key1;\n       key_C = sha_key2;\n    }\n\n    function withdraw(string key_Bob, string key_Carol) public {\n        require(keccak256(key_Bob) != 0);\n        require(keccak256(key_Carol) != 0);\n        require(key_B == keccak256(key_Bob));\n        require(key_C == keccak256(key_Carol));\n \n        key_B = 0;\n        key_C = 0;\n        \n        uint amount = balances[msg.sender];\n        balances[msg.sender] = 0;\n        LogWithdraw(msg.sender, amount);\n        msg.sender.transfer(amount);\n    }\n    \n    function() public payable{ \n        revert();\n    }\n    \n}\n    \n",
  "sourcePath": "/home/pritty/DAPPS/Remittance/contracts/Remittance.sol",
  "compiler": {
    "name": "solc",
    "version": "0.4.19+commit.c4cbbb05.Emscripten.clang"
  },
  "schemaVersion": "2.0.0",
  "updatedAt": "2018-06-14T15:56:02.242Z"
}