{
  "contractName": "Remittance",
  "abi": [
    {
      "constant": true,
      "inputs": [
        {
          "name": "",
          "type": "address"
        }
      ],
      "name": "balances",
      "outputs": [
        {
          "name": "",
          "type": "uint256"
        }
      ],
      "payable": false,
      "stateMutability": "view",
      "type": "function"
    },
    {
      "constant": true,
      "inputs": [],
      "name": "key_B",
      "outputs": [
        {
          "name": "",
          "type": "bytes32"
        }
      ],
      "payable": false,
      "stateMutability": "view",
      "type": "function"
    },
    {
      "constant": true,
      "inputs": [],
      "name": "owner",
      "outputs": [
        {
          "name": "",
          "type": "address"
        }
      ],
      "payable": false,
      "stateMutability": "view",
      "type": "function"
    },
    {
      "constant": true,
      "inputs": [],
      "name": "key_C",
      "outputs": [
        {
          "name": "",
          "type": "address"
        }
      ],
      "payable": false,
      "stateMutability": "view",
      "type": "function"
    },
    {
      "inputs": [],
      "payable": true,
      "stateMutability": "payable",
      "type": "constructor"
    },
    {
      "payable": true,
      "stateMutability": "payable",
      "type": "fallback"
    },
    {
      "anonymous": false,
      "inputs": [
        {
          "indexed": false,
          "name": "Receiver",
          "type": "address"
        },
        {
          "indexed": false,
          "name": "Amount",
          "type": "uint256"
        }
      ],
      "name": "LogWithdraw",
      "type": "event"
    },
    {
      "anonymous": false,
      "inputs": [
        {
          "indexed": false,
          "name": "Receiver",
          "type": "address"
        },
        {
          "indexed": false,
          "name": "Amount",
          "type": "uint256"
        }
      ],
      "name": "LogAddAddress",
      "type": "event"
    },
    {
      "anonymous": false,
      "inputs": [
        {
          "indexed": false,
          "name": "Key1",
          "type": "bytes32"
        }
      ],
      "name": "LogSetKeys",
      "type": "event"
    },
    {
      "constant": false,
      "inputs": [
        {
          "name": "X",
          "type": "address"
        }
      ],
      "name": "addAddress",
      "outputs": [
        {
          "name": "",
          "type": "bool"
        }
      ],
      "payable": true,
      "stateMutability": "payable",
      "type": "function"
    },
    {
      "constant": false,
      "inputs": [
        {
          "name": "sha_key1",
          "type": "bytes32"
        }
      ],
      "name": "setKeys",
      "outputs": [
        {
          "name": "",
          "type": "bool"
        }
      ],
      "payable": false,
      "stateMutability": "nonpayable",
      "type": "function"
    },
    {
      "constant": false,
      "inputs": [
        {
          "name": "key_Bob",
          "type": "string"
        }
      ],
      "name": "withdraw",
      "outputs": [],
      "payable": false,
      "stateMutability": "nonpayable",
      "type": "function"
    },
    {
      "constant": false,
      "inputs": [],
      "name": "kill",
      "outputs": [],
      "payable": false,
      "stateMutability": "nonpayable",
      "type": "function"
    }
  ],
  "bytecode": "0x606060405233600260006101000a81548173ffffffffffffffffffffffffffffffffffffffff021916908373ffffffffffffffffffffffffffffffffffffffff1602179055506108e2806100546000396000f30060606040526004361061008e576000357c0100000000000000000000000000000000000000000000000000000000900463ffffffff16806327e235e31461009357806331fb67c2146100e057806338eada1c1461013d57806341c0e1b514610183578063855f419c1461019857806385c79a23146101c95780638da5cb5b14610208578063d6c9bf741461025d575b600080fd5b341561009e57600080fd5b6100ca600480803573ffffffffffffffffffffffffffffffffffffffff169060200190919050506102b2565b6040518082815260200191505060405180910390f35b34156100eb57600080fd5b61013b600480803590602001908201803590602001908080601f016020809104026020016040519081016040528093929190818152602001838380828437820191505050505050919050506102ca565b005b610169600480803573ffffffffffffffffffffffffffffffffffffffff169060200190919050506105ac565b604051808215151515815260200191505060405180910390f35b341561018e57600080fd5b610196610703565b005b34156101a357600080fd5b6101ab61079a565b60405180826000191660001916815260200191505060405180910390f35b34156101d457600080fd5b6101ee6004808035600019169060200190919050506107a0565b604051808215151515815260200191505060405180910390f35b341561021357600080fd5b61021b61086a565b604051808273ffffffffffffffffffffffffffffffffffffffff1673ffffffffffffffffffffffffffffffffffffffff16815260200191505060405180910390f35b341561026857600080fd5b610270610890565b604051808273ffffffffffffffffffffffffffffffffffffffff1673ffffffffffffffffffffffffffffffffffffffff16815260200191505060405180910390f35b60036020528060005260406000206000915090505481565b60003373ffffffffffffffffffffffffffffffffffffffff16600160009054906101000a900473ffffffffffffffffffffffffffffffffffffffff1673ffffffffffffffffffffffffffffffffffffffff1614151561032857600080fd5b6000600102826040518082805190602001908083835b602083101515610363578051825260208201915060208101905060208303925061033e565b6001836020036101000a038019825116818451168082178552505050505050905001915050604051809103902060001916141515156103a157600080fd5b816040518082805190602001908083835b6020831015156103d757805182526020820191506020810190506020830392506103b2565b6001836020036101000a0380198251168184511680821785525050505050509050019150506040518091039020600019166000546000191614151561041b57600080fd5b6000600102600081600019169055506000600360003373ffffffffffffffffffffffffffffffffffffffff1673ffffffffffffffffffffffffffffffffffffffff1681526020019081526020016000205411151561047857600080fd5b600360003373ffffffffffffffffffffffffffffffffffffffff1673ffffffffffffffffffffffffffffffffffffffff168152602001908152602001600020549050600360003373ffffffffffffffffffffffffffffffffffffffff1673ffffffffffffffffffffffffffffffffffffffff168152602001908152602001600020600090557f4ce7033d118120e254016dccf195288400b28fc8936425acd5f17ce2df3ab7083382604051808373ffffffffffffffffffffffffffffffffffffffff1673ffffffffffffffffffffffffffffffffffffffff1681526020018281526020019250505060405180910390a13373ffffffffffffffffffffffffffffffffffffffff166108fc829081150290604051600060405180830381858888f1935050505015156105a857600080fd5b5050565b6000600260009054906101000a900473ffffffffffffffffffffffffffffffffffffffff1673ffffffffffffffffffffffffffffffffffffffff163373ffffffffffffffffffffffffffffffffffffffff1614151561060a57600080fd5b34600360008473ffffffffffffffffffffffffffffffffffffffff1673ffffffffffffffffffffffffffffffffffffffff1681526020019081526020016000208190555081600160006101000a81548173ffffffffffffffffffffffffffffffffffffffff021916908373ffffffffffffffffffffffffffffffffffffffff1602179055507fc8410e4bc3b9f529054af570471a055c24ee1f145f70fd7171abebed849131638234604051808373ffffffffffffffffffffffffffffffffffffffff1673ffffffffffffffffffffffffffffffffffffffff1681526020018281526020019250505060405180910390a160019050919050565b600260009054906101000a900473ffffffffffffffffffffffffffffffffffffffff1673ffffffffffffffffffffffffffffffffffffffff163373ffffffffffffffffffffffffffffffffffffffff1614151561075f57600080fd5b600260009054906101000a900473ffffffffffffffffffffffffffffffffffffffff1673ffffffffffffffffffffffffffffffffffffffff16ff5b60005481565b6000600260009054906101000a900473ffffffffffffffffffffffffffffffffffffffff1673ffffffffffffffffffffffffffffffffffffffff163373ffffffffffffffffffffffffffffffffffffffff161415156107fe57600080fd5b600060010282600019161415151561081557600080fd5b81600081600019169055507f4ae63fc4d200edffa27e659f2d13364ed3bb063bd20c4be8bd97e361a393aeeb60005460405180826000191660001916815260200191505060405180910390a160019050919050565b600260009054906101000a900473ffffffffffffffffffffffffffffffffffffffff1681565b600160009054906101000a900473ffffffffffffffffffffffffffffffffffffffff16815600a165627a7a723058209b9978f0e709bc94da9a477ed26c9a91aa2082cc98a49a3a8c1e203e0e1b01de0029",
  "source": "pragma solidity ^0.4.19;\n\ncontract Remittance {\n    bytes32  public key_B;\n    address  public key_C;\n    address  public owner;\n    \n    mapping (address => uint) public balances;\n    \n    event LogWithdraw(address Receiver, uint Amount);\n    event LogAddAddress(address Receiver, uint Amount);\n    event LogSetKeys(bytes32 Key1);\n\n    \n    function Remittance () public payable{\n        owner = msg.sender;\n    }\n    \n    function addAddress (address X) public payable returns(bool){\n       require(msg.sender == owner);\n       balances[X] = msg.value;\n       key_C = X;\n       LogAddAddress(X , msg.value);\n       return true;\n    }\n    \n    function setKeys (bytes32 sha_key1) public returns(bool){\n       require(msg.sender == owner);\n       require(sha_key1 != 0);\n\n       key_B = sha_key1;\n       LogSetKeys(key_B);\n       return true;\n    }\n\n    function withdraw(string key_Bob) public{\n        require(key_C == msg.sender);\n        require(keccak256(key_Bob) != 0);\n        require(key_B == keccak256(key_Bob));\n        key_B = 0;\n        require(balances[msg.sender] > 0);\n       \n        uint amount = balances[msg.sender];\n        delete balances[msg.sender];\n        LogWithdraw(msg.sender, amount);\n        msg.sender.transfer(amount);\n    }\n    \n\n    \n    function () public payable{ \n        revert();\n    }\n    \n    function kill() public{\n        require(msg.sender == owner);\n        selfdestruct(owner);\n    }\n    \n}\n\n\n\n",
  "sourcePath": "/home/pritty/DAPPS/Remittance/contracts/Remittance.sol",
  "compiler": {
    "name": "solc",
    "version": "0.4.19+commit.c4cbbb05.Emscripten.clang"
  },
  "schemaVersion": "2.0.0",
  "updatedAt": "2018-06-18T15:14:52.351Z"
}