{
  "contractName": "Remittance",
  "abi": [
    {
      "constant": true,
      "inputs": [],
      "name": "owner",
      "outputs": [
        {
          "name": "",
          "type": "address"
        }
      ],
      "payable": false,
      "stateMutability": "view",
      "type": "function"
    },
    {
      "constant": true,
      "inputs": [
        {
          "name": "",
          "type": "bytes32"
        }
      ],
      "name": "Remittee",
      "outputs": [
        {
          "name": "to",
          "type": "address"
        },
        {
          "name": "balance",
          "type": "uint256"
        },
        {
          "name": "isUsed",
          "type": "bool"
        }
      ],
      "payable": false,
      "stateMutability": "view",
      "type": "function"
    },
    {
      "inputs": [],
      "payable": true,
      "stateMutability": "payable",
      "type": "constructor"
    },
    {
      "payable": true,
      "stateMutability": "payable",
      "type": "fallback"
    },
    {
      "anonymous": false,
      "inputs": [
        {
          "indexed": false,
          "name": "Receiver",
          "type": "address"
        },
        {
          "indexed": false,
          "name": "Amount",
          "type": "uint256"
        }
      ],
      "name": "LogWithdraw",
      "type": "event"
    },
    {
      "anonymous": false,
      "inputs": [
        {
          "indexed": false,
          "name": "Receiver",
          "type": "address"
        },
        {
          "indexed": false,
          "name": "hashPassword",
          "type": "bytes32"
        },
        {
          "indexed": false,
          "name": "Amount",
          "type": "uint256"
        }
      ],
      "name": "LogsendRemittance",
      "type": "event"
    },
    {
      "constant": false,
      "inputs": [
        {
          "name": "to",
          "type": "address"
        },
        {
          "name": "hashPassword",
          "type": "bytes32"
        }
      ],
      "name": "sendRemittance",
      "outputs": [
        {
          "name": "",
          "type": "bool"
        }
      ],
      "payable": true,
      "stateMutability": "payable",
      "type": "function"
    },
    {
      "constant": false,
      "inputs": [
        {
          "name": "to",
          "type": "address"
        },
        {
          "name": "password",
          "type": "bytes32"
        }
      ],
      "name": "withdraw",
      "outputs": [],
      "payable": false,
      "stateMutability": "nonpayable",
      "type": "function"
    },
    {
      "constant": true,
      "inputs": [
        {
          "name": "pw",
          "type": "bytes32"
        }
      ],
      "name": "hashHelper",
      "outputs": [
        {
          "name": "hash",
          "type": "bytes32"
        }
      ],
      "payable": false,
      "stateMutability": "pure",
      "type": "function"
    },
    {
      "constant": false,
      "inputs": [],
      "name": "kill",
      "outputs": [],
      "payable": false,
      "stateMutability": "nonpayable",
      "type": "function"
    }
  ],
  "bytecode": "0x6060604052336000806101000a81548173ffffffffffffffffffffffffffffffffffffffff021916908373ffffffffffffffffffffffffffffffffffffffff160217905550610783806100536000396000f300606060405260043610610078576000357c0100000000000000000000000000000000000000000000000000000000900463ffffffff16806340e5e9aa1461007d57806341c0e1b5146100c357806349883524146100d85780636153eaf21461012b5780638da5cb5b1461016e578063f674ad3f146101c3575b600080fd5b341561008857600080fd5b6100c1600480803573ffffffffffffffffffffffffffffffffffffffff169060200190919080356000191690602001909190505061023c565b005b34156100ce57600080fd5b6100d6610443565b005b610111600480803573ffffffffffffffffffffffffffffffffffffffff16906020019091908035600019169060200190919050506104d9565b604051808215151515815260200191505060405180910390f35b341561013657600080fd5b6101506004808035600019169060200190919050506106b4565b60405180826000191660001916815260200191505060405180910390f35b341561017957600080fd5b6101816106db565b604051808273ffffffffffffffffffffffffffffffffffffffff1673ffffffffffffffffffffffffffffffffffffffff16815260200191505060405180910390f35b34156101ce57600080fd5b6101e8600480803560001916906020019091905050610700565b604051808473ffffffffffffffffffffffffffffffffffffffff1673ffffffffffffffffffffffffffffffffffffffff16815260200183815260200182151515158152602001935050505060405180910390f35b600080610248836106b4565b91508373ffffffffffffffffffffffffffffffffffffffff1660016000846000191660001916815260200190815260200160002060000160009054906101000a900473ffffffffffffffffffffffffffffffffffffffff1673ffffffffffffffffffffffffffffffffffffffff161415156102c257600080fd5b6001600083600019166000191681526020019081526020016000206001015490506000811115156102f257600080fd5b6000600160008460001916600019168152602001908152602001600020600101819055507f4ce7033d118120e254016dccf195288400b28fc8936425acd5f17ce2df3ab70860016000846000191660001916815260200190815260200160002060000160009054906101000a900473ffffffffffffffffffffffffffffffffffffffff1682604051808373ffffffffffffffffffffffffffffffffffffffff1673ffffffffffffffffffffffffffffffffffffffff1681526020018281526020019250505060405180910390a160016000836000191660001916815260200190815260200160002060000160009054906101000a900473ffffffffffffffffffffffffffffffffffffffff1673ffffffffffffffffffffffffffffffffffffffff166108fc829081150290604051600060405180830381858888f19350505050151561043d57600080fd5b50505050565b6000809054906101000a900473ffffffffffffffffffffffffffffffffffffffff168073ffffffffffffffffffffffffffffffffffffffff163373ffffffffffffffffffffffffffffffffffffffff1614151561049f57600080fd5b6000809054906101000a900473ffffffffffffffffffffffffffffffffffffffff1673ffffffffffffffffffffffffffffffffffffffff16ff5b60008060009054906101000a900473ffffffffffffffffffffffffffffffffffffffff168073ffffffffffffffffffffffffffffffffffffffff163373ffffffffffffffffffffffffffffffffffffffff1614151561053757600080fd5b60016000846000191660001916815260200190815260200160002060020160009054906101000a900460ff1615151561056f57600080fd5b8360016000856000191660001916815260200190815260200160002060000160006101000a81548173ffffffffffffffffffffffffffffffffffffffff021916908373ffffffffffffffffffffffffffffffffffffffff16021790555034600160008560001916600019168152602001908152602001600020600101600082825401925050819055506001806000856000191660001916815260200190815260200160002060020160006101000a81548160ff0219169083151502179055507f1a4531ca4657ae7da78ccd845edd0293afadc1c653cbadd304137620c01873db848434604051808473ffffffffffffffffffffffffffffffffffffffff1673ffffffffffffffffffffffffffffffffffffffff1681526020018360001916600019168152602001828152602001935050505060405180910390a1600191505092915050565b60008160405180826000191660001916815260200191505060405180910390209050919050565b6000809054906101000a900473ffffffffffffffffffffffffffffffffffffffff1681565b60016020528060005260406000206000915090508060000160009054906101000a900473ffffffffffffffffffffffffffffffffffffffff16908060010154908060020160009054906101000a900460ff169050835600a165627a7a7230582061d13af1aa892703c60854882cbc92182424845ad63b4303fc61e0e751f20c400029",
  "source": "pragma solidity ^0.4.18;\n\ncontract Remittance {\n\n    address  public owner;\n   \n    struct DetailsStruct{\n        address to;\n        uint balance;\n        bool isUsed;\n    }\n    \n    mapping (bytes32 => DetailsStruct) public Remittee;\n    \n    event LogWithdraw(address Receiver, uint Amount);\n    event LogsendRemittance(address Receiver, bytes32 hashPassword, uint Amount);\n    \n    modifier onlyBy(address byWhom)\n    {\n        require(msg.sender == byWhom);\n         _;\n    }\n  \n    function Remittance () public payable{\n        owner = msg.sender;\n    }\n    \n    function sendRemittance (address to, bytes32 hashPassword) public payable  onlyBy(owner) returns(bool){\n       require(!Remittee[hashPassword].isUsed);\n       Remittee[hashPassword].to = to;\n       Remittee[hashPassword].balance += msg.value;\n       Remittee[hashPassword].isUsed = true;\n       LogsendRemittance(to , hashPassword, msg.value);\n       return true;\n    }\n    \n    function withdraw(address to, bytes32 password) public{\n        bytes32 hashPassword = hashHelper(password);\n        require(Remittee[hashPassword].to == to);\n        uint amount = Remittee[hashPassword].balance;\n        require (amount > 0);\n        Remittee[hashPassword].balance = 0;\n        LogWithdraw(Remittee[hashPassword].to, amount);\n        Remittee[hashPassword].to.transfer(amount);\n    }\n    \n    function hashHelper (bytes32 pw) public pure returns(bytes32 hash){\n       return keccak256(pw);\n    }\n\n    function () public payable{ \n        revert();\n    }\n    \n    function kill() public onlyBy(owner){\n        selfdestruct(owner);\n    }\n    \n}\n\n\n\n",
  "sourcePath": "/home/pritty/DAPPS/Remittance/contracts/Remittance.sol",
  "compiler": {
    "name": "solc",
    "version": "0.4.19+commit.c4cbbb05.Emscripten.clang"
  },
  "schemaVersion": "2.0.0",
  "updatedAt": "2018-06-19T09:59:35.257Z"
}